:100000000C942A000C9447000C9447000C94470071
:100010000C94EB180C941E190C94A6160C94D9167B
:100020000C940C170C943F170C940C120C943F1268
:100030000C94C50E0C9447000C9447000C94470098
:100040000C9454070C9447000C9447000C94470000
:100050000C94470011241FBECFE5D8E0DEBFCDBF12
:1000600011E0A0E6B0E0ECE2F6E502C005900D92EA
:10007000AA3BB107D9F711E0AAEBB1E001C01D928C
:10008000AE3DB107E1F70E9451190C94142B0C946A
:100090000000EF92FF920F931F937B018C0120E0F1
:1000A00030E040E05FE40E94490388238CF0C801FF
:1000B000B70120E030E040E05FE40E94C1010E940F
:1000C000A9039B01AC01205030404040504806C07D
:1000D000C801B7010E94A9039B01AC01B901CA0183
:1000E0001F910F91FF90EF900895A0E0B0E0EBE733
:1000F000F0E00C94DD2ADC012B01FA019C91923096
:1001000008F439C1EB018881823008F433C194309E
:1001100069F4843009F02FC111969C91119789815F
:10012000981709F428C1A8E8B1E025C1843009F482
:1001300021C18230A9F4923009F01DC19A01AD01AC
:1001400088E0EA010990AE01E90109929E0181501F
:10015000C1F7E201898111969C918923818308C1AD
:10016000923009F407C112962D903C901397EB0141
:100170008A819B811496AD90BD90CD90DC901797AD
:10018000EC80FD800E811F819101281B390BB90184
:1001900037FF04C066277727621B730B6032710537
:1001A0000CF061C0121613066CF537014801062EDB
:1001B00004C096948794779467940A94D2F721E0C8
:1001C00030E040E050E004C0220F331F441F551FB1
:1001D0006A95D2F721503040404050402E213F21B7
:1001E00040235123211531054105510521F021E01E
:1001F00030E040E050E079018A01E628F72808293C
:1002000019293CC0232BD1F1260E371E350146019A
:10021000062E04C096948794779467940A94D2F734
:1002200021E030E040E050E004C0220F331F441FC3
:10023000551F6A95D2F721503040404050402A2146
:100240003B214C215D21211531054105510521F04E
:1002500021E030E040E050E059016A01A628B728CB
:10026000C828D9280BC0821593052CF01C01AA249C
:10027000BB24650103C0EE24FF24870111969C91E5
:10028000D20111968C91981709F445C0992339F041
:10029000A80197012A193B094C095D0906C0A6016E
:1002A00095012E193F09400B510B57FD08C01182D3
:1002B0003382228224833583468357831DC081E0A5
:1002C00081833382228288279927DC01821B930B4A
:1002D000A40BB50B84839583A683B7830DC0220F2F
:1002E000331F441F551F24833583468357838281E0
:1002F000938101979383828324813581468157813D
:10030000DA01C9010197A109B1098F5F9F4FAF4F72
:10031000BF4328F30BC0918333822282EA0CFB1C7B
:100320000C1D1D1DE482F5820683178383E0808304
:10033000248135814681578157FF1AC0C901AA27F8
:1003400097FDA095BA2F81709070A070B0705695EF
:10035000479537952795822B932BA42BB52B848318
:100360009583A683B7838281938101969383828349
:10037000DF0101C0D201CD01CDB7DEB7E2E10C94BF
:10038000F92AA0E2B0E0E7ECF1E00C94E92A6983F5
:100390007A838B839C832D833E834F835887E9E048
:1003A000EE2EF12CEC0EFD1ECE010196B7010E943F
:1003B000D2048E010F5E1F4FCE010596B8010E9438
:1003C000D2048A8991E089278A8BC701B801AE01DE
:1003D000475E5F4F0E9475000E94FD03A096E6E015
:1003E0000C94052BA0E2B0E0E8EFF1E00C94E92AD0
:1003F00069837A838B839C832D833E834F835887C5
:10040000F9E0EF2EF12CEC0EFD1ECE010196B701A6
:100410000E94D2048E010F5E1F4FCE010596B801D7
:100420000E94D204C701B801AE01475E5F4F0E942F
:1004300075000E94FD03A096E6E00C94052BA0E257
:10044000B0E0E5E2F2E00C94DD2A69837A838B83E5
:100450009C832D833E834F835887CE010196BE0136
:10046000675F7F4F0E94D204CE010596BE016F5E8A
:100470007F4F0E94D2049985923088F0898982301A
:10048000C8F0943019F4823051F404C0843029F457
:10049000923081F488E891E0C6C0923049F420E0BF
:1004A0009A858A89981321E02A87CE010996BBC0D4
:1004B000823049F420E09A858A89981321E02A8BBA
:1004C000CE014196B0C02D843E844F8458886D88FB
:1004D0007E888F88988CEE24FF248701AA24BB2471
:1004E000650140E050E060E070E0E0E0F0E0C10174
:1004F00081709070892BE9F0E60CF71C081D191D1E
:100500009A01AB012A0D3B1D4C1D5D1D80E090E062
:10051000A0E0B0E0E614F7040805190520F481E036
:1005200090E0A0E0B0E0BA01A901480F591F6A1F8E
:100530007B1FAA0CBB1CCC1CDD1C97FE08C081E0F5
:1005400090E0A0E0B0E0A82AB92ACA2ADB2A3196B6
:10055000E032F10549F0660C771C881C991C569412
:10056000479437942794C3CFFA85EA892B893C892D
:100570008B859C85280F391F2E5F3F4F17C0CA01FE
:1005800081709070892B61F016950795F794E79428
:1005900080E090E0A0E0B0E8E82AF92A0A2B1B2BC3
:1005A00076956795579547952F5F3F4F77FDE7CF36
:1005B0000CC0440F551F661F771F17FD4160EE0CDE
:1005C000FF1C001F111F21503040403090E05907A0
:1005D00090E0690790E4790760F32B8F3C8FDB0193
:1005E000CA018F779070A070B07080349105A1051A
:1005F000B10561F447FD0AC0E114F10401051105DC
:1006000029F0405C5F4F6F4F7F4F40781A8EFE1786
:1006100011F081E08A8F4D8F5E8F6F8F78A383E01A
:10062000898FCE0149960E94FD03A096E2E10C94C9
:10063000F92AA8E1B0E0EFE1F3E00C94E92A69833C
:100640007A838B839C832D833E834F83588789E0F5
:10065000E82EF12CEC0EFD1ECE010196B7010E9492
:10066000D2048E010F5E1F4FCE010596B8010E9485
:10067000D2048985823040F08989823028F0C70110
:10068000B8010E944A0501C08FEF6896E6E00C941D
:10069000052BA8E1B0E0EFE4F3E00C94E92A6983CC
:1006A0007A838B839C832D833E834F83588789E095
:1006B000E82EF12CEC0EFD1ECE010196B7010E9432
:1006C000D2048E010F5E1F4FCE010596B8010E9425
:1006D000D2048985823040F08989823028F0C701B0
:1006E000B8010E944A0501C08FEF6896E6E00C94BD
:1006F000052BA8E1B0E0EFE7F3E00C94E92A698369
:100700007A838B839C832D833E834F83588789E034
:10071000E82EF12CEC0EFD1ECE010196B7010E94D1
:10072000D2048E010F5E1F4FCE010596B8010E94C4
:10073000D2048985823040F08989823028F0C7014F
:10074000B8010E944A0501C081E06896E6E00C9479
:10075000052BACE0B0E0EFEAF3E00C94ED2A6983FE
:100760007A838B839C83CE010196BE016B5F7F4FA2
:100770000E94D2048D81823061F1823050F1843048
:1007800021F48E81882351F12EC02F81388537FDC9
:1007900020C06E812F3131051CF06623F9F023C093
:1007A0008EE190E0821B930B29853A854B855C8511
:1007B00004C056954795379527958A95D2F76623B5
:1007C000B1F050954095309521953F4F4F4F5F4F79
:1007D0000EC020E030E040E050E009C02FEF3FEFD6
:1007E0004FEF5FE704C020E030E040E050E8B9019F
:1007F000CA012C96E2E00C94092BDF92EF92FF9253
:100800000F931F93FC01E480F58006811781D1804E
:100810008081823048F480E090E0A0E1B0E0E82AF6
:10082000F92A0A2B1B2BA5C0843009F49FC0823003
:1008300021F4EE24FF24870105C0E114F104010531
:10084000110519F4E0E0F0E096C0628173819FEF3A
:10085000623879070CF05BC022E83FEF261B370BAC
:100860002A3131052CF020E030E040E050E02AC091
:10087000B801A701022E04C0769567955795479554
:100880000A94D2F781E090E0A0E0B0E004C0880FC5
:10089000991FAA1FBB1F2A95D2F70197A109B10979
:1008A0008E219F21A023B1230097A105B10521F03E
:1008B00081E090E0A0E0B0E09A01AB01282B392B59
:1008C0004A2B5B2BDA01C9018F779070A070B07052
:1008D00080349105A105B10539F427FF09C0205CDA
:1008E0003F4F4F4F5F4F04C0215C3F4F4F4F5F4F13
:1008F000E0E0F0E02030A0E03A07A0E04A07A0E402
:100900005A0710F0E1E0F0E079018A0127C0603871
:10091000710564F5FB01E158FF4FD801C7018F77DE
:100920009070A070B07080349105A105B10539F4C4
:10093000E7FE0DC080E490E0A0E0B0E004C08FE3EB
:1009400090E0A0E0B0E0E80EF91E0A1F1B1F17FFA1
:1009500005C016950795F794E794319687E01695AC
:100960000795F794E7948A95D1F705C0EE24FF2404
:100970008701EFEFF0E06E2F679566276795902F60
:100980009F77D794DD24D7948E2F8695492F462BB9
:10099000582F5D29B701CA011F910F91FF90EF9069
:1009A000DF900895FC01DB01408151812281622F9B
:1009B0006F7770E0221F2227221F9381892F880FD3
:1009C000822B282F30E0991F9927991F11969C930D
:1009D000119721153105A9F54115510561057105DD
:1009E00011F482E037C082E89FEF13969C938E93B8
:1009F00012979A01AB0167E0220F331F441F551F66
:100A00006A95D1F783E08C930DC0220F331F441FEA
:100A1000551F12968D919C911397019713969C9355
:100A20008E931297203080E0380780E0480780E4FA
:100A3000580758F314962D933D934D935C93179755
:100A400008952F3F310579F4411551056105710570
:100A500019F484E08C93089564FF03C081E08C93C3
:100A600012C01C9210C02F57304013963C932E9307
:100A7000129783E08C9387E0440F551F661F771F02
:100A80008A95D1F7706414964D935D936D937C9322
:100A9000179708951F93DC01FB019C91923008F495
:100AA00047C08081823008F443C0943051F41196DD
:100AB0001C91843099F58181682F70E0611B710968
:100AC0003FC0843021F0923031F48230B9F181811D
:100AD000882389F12DC011961C9111978230F1F075
:100AE00081811817D9F412962D913C911397828128
:100AF00093818217930794F028173907BCF0149656
:100B00008D919D910D90BC91A02D248135814681C0
:100B10005781281739074A075B0718F4112341F05A
:100B20000AC082179307A407B50740F4112319F0F0
:100B300061E070E005C06FEF7FEF02C060E070E041
:100B4000CB011F910895DF93CF93CDB7DEB7A7E216
:100B5000B0E0E7E2F0E0808180648C93A7E2B0E04F
:100B6000E7E2F0E080818F778C93A7E2B0E0E7E2E4
:100B7000F0E0808180628C93A6E2B0E0E6E2F0E0F3
:100B80008081887F8C93A6E2B0E0E6E2F0E080818D
:100B900087608C93A6E2B0E0E6E2F0E080818068B6
:100BA0008C93CF91DF910895DF93CF93CDB7DEB7CC
:100BB00028970FB6F894DEBF0FBECDBF8E8378871F
:100BC0006F831A821B821C821D8219828091BF0151
:100BD000882309F05AC081E08093BF01A7E2B0E00A
:100BE000E7E2F0E08081807E8C93A7E2B0E0E7E26C
:100BF000F0E090818E81892B8C93A6E2B0E0E6E252
:100C0000F0E0808180648C93E6E2F0E08081829560
:100C10008F70882F90E081709070009761F48A81C6
:100C20009B81AC81BD81803523EC920720E0A20737
:100C300020E0B20749F78A819B81AC81BD81019692
:100C4000A11DB11D8A839B83AC83BD838A819B8157
:100C5000AC81BD81803523EC920720E0A20720E023
:100C6000B20719F481E0898312C0A6E2B0E0E6E29F
:100C7000F0E0808180618C93E5E2F0E08081EF819B
:100C8000F88580831092BF0102C083E08983898147
:100C900028960FB6F894DEBF0FBECDBFCF91DF917F
:100CA0000895DF93CF9300D000D000D0CDB7DEB74A
:100CB0008A837C836B835E834D8319828091BF011D
:100CC0008823C1F58B819C81009721F08D819E81C5
:100CD000009719F482E089832FC081E08093BF01DF
:100CE0008B819C819093BC018093BB018D819E81FF
:100CF0009093BE018093BD01A7E2B0E0E7E2F0E08F
:100D00008081807E8C93A7E2B0E0E7E2F0E0908102
:100D10008A81892B8C93A6E2B0E0E6E2F0E0808144
:100D200080648C93A6E2B0E0E6E2F0E08081886027
:100D30008C9302C083E08983898126960FB6F8944C
:100D4000DEBF0FBECDBFCF91DF910895DF93CF936C
:100D5000CDB7DEB728970FB6F894DEBF0FBECDBF74
:100D60009B838A837D836C834E8338872F8319828C
:100D70008A819B81009741F08C819D81009721F0B1
:100D80008F819885009719F082E0898310C0EA81ED
:100D9000FB818C819D8191838083EA81FB818E819F
:100DA0008283EA81FB818F81988594838383898103
:100DB00028960FB6F894DEBF0FBECDBFCF91DF915E
:100DC0000895DF93CF9300D000D00F92CDB7DEB758
:100DD0009B838A837D836C8319828091BF018823E2
:100DE00009F057C08A819B81009721F08C819D81F9
:100DF000009719F482E089834EC081E08093BF019F
:100E000081E08093BA018C819D819093BE01809393
:100E1000BD01EA81FB81808191819093C101809322
:100E2000C001EA81FB8182818093C201EA81FB815A
:100E3000838194819093BC018093BB011092C30184
:100E4000A7E2B0E0E7E2F0E08081807E8C93A7E249
:100E5000B0E0E7E2F0E040812091C0013091C101B3
:100E60008091C301882F90E0F901E80FF91F80817C
:100E7000842B8C93A6E2B0E0E6E2F0E0808180640F
:100E80008C93A6E2B0E0E6E2F0E0808188608C938B
:100E900002C083E0898389810F900F900F900F909B
:100EA0000F90CF91DF9108951F920F920FB60F927E
:100EB00011242F933F934F935F936F937F938F935F
:100EC0009F93AF93BF93EF93FF93DF93CF93CDB7F0
:100ED000DEB78091BA018823D1F4A091BB01B09113
:100EE000BC01E5E2F0E08081882F90E08D939C9337
:100EF0001092BF01E091BD01F091BE010995A6E2FB
:100F0000B0E0E6E2F0E08081877F8C934CC0809176
:100F1000BA01813009F047C0A091BB01B091BC017A
:100F2000E5E2F0E08081882F90E011969C938E930B
:100F30008091C3018F5F8093C3019091C301809121
:100F4000C201981779F41092BF01E091BD01F091B0
:100F5000BE010995A6E2B0E0E6E2F0E08081877F7D
:100F60008C9321C0A7E2B0E0E7E2F0E08081807ED0
:100F70008C93A7E2B0E0E7E2F0E040812091C0016D
:100F80003091C1018091C301882F90E0F901E80FF1
:100F9000F91F8081842B8C93A6E2B0E0E6E2F0E0BA
:100FA000808180648C93CF91DF91FF91EF91BF910D
:100FB000AF919F918F917F916F915F914F913F91F1
:100FC0002F910F900FBE0F901F901895DF93CF9326
:100FD000CDB7DEB72F970FB6F894DEBF0FBECDBFEB
:100FE0008F8780E067E040E00E94EC0A80E066E0E6
:100FF00040E00E94EC0A82E06F850E94FE0B80E0D8
:1010000065E041E00E94EC0A80E090E0A0E0B0E4FE
:101010008B879C87AD87BE876B857C858D859E85FC
:1010200020E030E04AEF54E40E941F02DC01CB01D3
:101030008F839887A987BA876F81788589859A85F4
:1010400020E030E040E85FE30E94790388232CF43D
:1010500081E090E09E838D833FC06F817885898594
:101060009A8520E03FEF4FE757E40E9419031816D6
:101070004CF56B857C858D859E8520E030E040E2D7
:1010800051E40E941F02DC01CB01BC01CD010E9492
:101090004900DC01CB019E838D830FC088EC90E07A
:1010A0009C838B838B819C810197F1F79C838B833D
:1010B0008D819E8101979E838D838D819E81009776
:1010C00069F714C06F81788589859A850E944900E7
:1010D000DC01CB019E838D838D819E819A838983E0
:1010E00089819A810197F1F79A83898380E065E08D
:1010F00040E00E94EC0A2F960FB6F894DEBF0FBEB8
:10110000CDBFCF91DF910895DF93CF93CDB7DEB7F9
:101110002F970FB6F894DEBF0FBECDBF8F8780E04C
:1011200067E041E00E94EC0A80E066E040E00E9457
:10113000EC0A82E06F850E94FE0B80E065E041E0F2
:101140000E94EC0A80E090E0A0E0B0E48B879C87EE
:10115000AD87BE876B857C858D859E8520E030E0E0
:101160004AEF54E40E941F02DC01CB018F83988771
:10117000A987BA876F81788589859A8520E030E0D4
:1011800040E85FE30E94790388232CF481E090E03B
:101190009E838D833FC06F81788589859A8520E005
:1011A0003FEF4FE757E40E94190318164CF56B8583
:1011B0007C858D859E8520E030E040E251E40E94F0
:1011C0001F02DC01CB01BC01CD010E944900DC0102
:1011D000CB019E838D830FC088EC90E09C838B8332
:1011E0008B819C810197F1F79C838B838D819E81FC
:1011F00001979E838D838D819E81009769F714C02E
:101200006F81788589859A850E944900DC01CB0130
:101210009E838D838D819E819A83898389819A8122
:101220000197F1F79A83898380E065E040E00E94AE
:10123000EC0A2F960FB6F894DEBF0FBECDBFCF914C
:10124000DF910895DF93CF93CDB7DEB72E970FB61A
:10125000F894DEBF0FBECDBF80E090E0A0E2B2E424
:101260008B879C87AD87BE876B857C858D859E85AA
:1012700020E030E04AEF54E40E941F02DC01CB0181
:101280008F839887A987BA876F81788589859A85A2
:1012900020E030E040E85FE30E94790388232CF4EB
:1012A00081E090E09E838D833FC06F817885898542
:1012B0009A8520E03FEF4FE757E40E941903181684
:1012C0004CF56B857C858D859E8520E030E040E285
:1012D00051E40E941F02DC01CB01BC01CD010E9440
:1012E0004900DC01CB019E838D830FC088EC90E028
:1012F0009C838B838B819C810197F1F79C838B83EB
:101300008D819E8101979E838D838D819E81009723
:1013100069F714C06F81788589859A850E94490094
:10132000DC01CB019E838D838D819E819A8389838D
:1013300089819A810197F1F79A83898388E30E94D2
:10134000E6078CE00E94E60781E00E94E6072E9601
:101350000FB6F894DEBF0FBECDBFCF91DF910895D9
:10136000DF93CF9300D00F92CDB7DEB79B838A83F4
:1013700019820EC08981282F30E08A819B81FC016F
:10138000E20FF31F80810E94840889818F5F898327
:101390008981282F30E08A819B81FC01E20FF31FB5
:1013A0008081882339F70F900F900F90CF91DF91B4
:1013B0000895DF93CF9300D00F92CDB7DEB78A8325
:1013C0006B838A81882319F48B81898306C08A8183
:1013D000813019F48B81805C8983898180580E94D7
:1013E000E6070F900F900F90CF91DF910895DF9354
:1013F000CF93CDB7DEB727970FB6F894DEBF0FBEF9
:10140000CDBF9C838B836D834E832F831A828D8106
:10141000882F90E0880F991F880F991F880F991FB8
:101420008A838A81805C0E94E60719820EC08981C6
:10143000282F30E08B819C81FC01E20FF31F80811B
:101440000E94840889818F5F89838981883078F33D
:101450008E816F810E94D9098D810E948408279610
:101460000FB6F894DEBF0FBECDBFCF91DF910895C8
:101470000F931F93DF93CF93CDB7DEB766970FB669
:10148000F894DEBF0FBECDBF6F87788B898B9A8BA8
:101490002B8B3C8B4D8B5E8B8AE0FE013596DF01FA
:1014A000282F1D922A95E9F784E090E09C838B8396
:1014B0001A82198233C00B811C818F859889A98972
:1014C000BA892AE030E040E050E0BC01CD010E9442
:1014D000A02ADC01CB01AC019801220F331FCE0101
:1014E0000196820F931FFC013496518340838F85B0
:1014F0009889A989BA892AE030E040E050E0BC012F
:10150000CD010E94A02ADA01C9018F87988BA98B8F
:10151000BA8B8B819C8101979C838B838F85988963
:10152000A989BA890097A105B10529F68B899C89FB
:10153000AD89BE898F3F4FEF94074FEFA4074FEF60
:10154000B407B1F405C089819A8101969A83898391
:1015500089819A819C01220F331FCE010196820F4F
:10156000931FFC01349680819181009761F30AC03A
:101570008B899C8925E030E0D901A81BB90BCD01EE
:101580009A83898389819A819C838B8315C08B81FF
:101590009C819C01220F331FCE010196820F931F65
:1015A000FC01349680819181805D0E9484088B814A
:1015B0009C8101969C838B838B819C8185309105D6
:1015C00030F366960FB6F894DEBF0FBECDBFCF9155
:1015D000DF911F910F910895DF93CF93CDB7DEB7C1
:1015E00028970FB6F894DEBF0FBECDBF8A836B83FA
:1015F0004C8319828B81883008F0F4C08C81882359
:1016000009F077C08A81282F30E038872F838F81B7
:1016100098858130910559F12F8138852230310527
:101620002CF48F819885009769F060C02F813885F0
:101630002230310589F18F8198858330910509F435
:1016400040C054C0ABE3B0E0EBE3F0E08081482F52
:101650008B81282F30E081E090E0022E02C0880FBD
:10166000991F0A94E2F7809584238C93BDC0A8E368
:10167000B0E0E8E3F0E08081482F8B81282F30E054
:1016800081E090E0022E02C0880F991F0A94E2F7D1
:10169000809584238C93A8C0A5E3B0E0E5E3F0E057
:1016A0008081482F8B81282F30E081E090E0022E4E
:1016B00002C0880F991F0A94E2F7809584238C93C7
:1016C00093C0A2E3B0E0E2E3F0E08081482F8B8199
:1016D000282F30E081E090E0022E02C0880F991F91
:1016E0000A94E2F7809584238C937EC081E08983FD
:1016F0007BC08C81813009F072C08A81282F30E054
:101700003E832D838D819E818130910549F12D810C
:101710003E81223031052CF48D819E81009761F04D
:101720005BC02D813E812230310571F18D819E811A
:1017300083309105E9F150C0ABE3B0E0EBE3F0E0BA
:101740008081482F8B81282F30E081E090E0022EAD
:1017500002C0880F991F0A94E2F7842B8C9344C02F
:10176000A8E3B0E0E8E3F0E08081482F8B81282FE8
:1017700030E081E090E0022E02C0880F991F0A94A9
:10178000E2F7842B8C9330C0A5E3B0E0E5E3F0E012
:101790008081482F8B81282F30E081E090E0022E5D
:1017A00002C0880F991F0A94E2F7842B8C931CC007
:1017B000A2E3B0E0E2E3F0E08081482F8B81282FA4
:1017C00030E081E090E0022E02C0880F991F0A9459
:1017D000E2F7842B8C9308C081E0898305C081E007
:1017E000898302C081E08983898128960FB6F894A5
:1017F000DEBF0FBECDBFCF91DF910895DF93CF93B2
:1018000000D000D00F92CDB7DEB78A836B831982E8
:101810008A81282F30E03D832C838C819D8181300B
:101820009105D1F02C813D81223031052CF48C8141
:101830009D81009761F01FC02C813D8122303105D0
:1018400081F08C819D818330910581F014C0EBE3A0
:10185000F0E08B81808311C0E8E3F0E08B8180832E
:101860000CC0E5E3F0E08B81808307C0E2E3F0E0A9
:101870008B81808302C081E0898389810F900F90E2
:101880000F900F900F90CF91DF910895DF93CF933A
:10189000CDB7DEB727970FB6F894DEBF0FBECDBF2A
:1018A0008A836B835D834C8319828C819D81009731
:1018B00009F478C08B81883008F074C08A81282FA1
:1018C00030E03F832E834E815F814130510559F1D5
:1018D0008E819F818230910534F42E813F812115C4
:1018E000310569F05CC04E815F814230510579F16C
:1018F0008E819F818330910509F43DC050C0E9E39A
:10190000F0E08081282F30E08B81882F90E0A901C2
:1019100002C0559547958A95E2F7CA018170EC811E
:10192000FD81808341C0E6E3F0E08081282F30E034
:101930008B81882F90E0A90102C0559547958A9523
:10194000E2F7CA018170EC81FD8180832DC0E3E361
:10195000F0E08081282F30E08B81882F90E0A90172
:1019600002C0559547958A95E2F7CA018170EC81CE
:10197000FD81808319C0E0E3F0E08081282F30E012
:101980008B81882F90E0A90102C0559547958A95D3
:10199000E2F7CA018170EC81FD81808305C081E09E
:1019A000898302C081E08983898127960FB6F894E4
:1019B000DEBF0FBECDBFCF91DF910895DF93CF93F0
:1019C000CDB7DEB7AFE5B0E0EFE5F0E0808180684D
:1019D0008C93CF91DF910895DF93CF93CDB7DEB78E
:1019E000AFE5B0E0EFE5F0E080818F778C93CF91A9
:1019F000DF910895DF93CF9300D000D00F92CDB741
:101A0000DEB78FEF8B831A825EC08A81882F90E0C9
:101A1000FC01EC56FE4F908183E0692F40E00E946C
:101A2000EC0A19823DC08981882F90E0FC01E057C3
:101A3000FE4F90819E012C5F3F4F83E0692FA901EB
:101A40000E94460C8C81882341F58981482F50E003
:101A50008A81282F30E0CA01880F991F880F991FAB
:101A6000820F931FFC01E856FE4F80818B830FC0CD
:101A70008981882F90E0FC01E057FE4F90819E0104
:101A80002C5F3F4F83E0692FA9010E94460C8C8197
:101A9000882371F38B818D831CC089818F5F89833B
:101AA0008981843008F4BFCF8A81882F90E0FC01BF
:101AB000EC56FE4F908183E0692F41E00E94EC0AD2
:101AC0008A818F5F8A838A81843008F49ECF8B81DC
:101AD0008D838D810F900F900F900F900F90CF916D
:101AE000DF910895DF93CF93CDB7DEB7EAE3F0E05F
:101AF0008CEF8083E7E3F0E08FEA8083E4E3F0E0BB
:101B00008FEF8083E1E3F0E08FE08083EBE3F0E0B0
:101B10001082E8E3F0E080E18083E5E3F0E010820A
:101B2000E2E3F0E08FEF8083CF91DF910895DF93C0
:101B3000CF93CDB7DEB78EE062E00E94721281E0F3
:101B400060E00E94A61480E29EE40E9453168EEE8E
:101B500092E00E945615CF91DF910895DF93CF93C5
:101B600000D00F92CDB7DEB78B838B81882F90E0AA
:101B7000A0E0B0E026ED36E040E050E0BC01CD0151
:101B80000E946D2ADC01CB0124EB30E040E050E004
:101B9000BC01CD010E94A02ADA01C90182519D4FEA
:101BA0009A83898389819A810E9456150F900F909C
:101BB0000F90CF91DF910895DF93CF93CDB7DEB72C
:101BC000ADE2B0E0EDE2F0E0808180618C93ADE2C7
:101BD000B0E0EDE2F0E0808181608C93ADE2B0E0B6
:101BE000EDE2F0E080818D7F8C93AEE2B0E0EEE23A
:101BF000F0E080818E7F8C93ADE2B0E0EDE2F0E02A
:101C0000808180628C93ADE2B0E0EDE2F0E0808113
:101C100088608C93ADE2B0E0EDE2F0E080818B7FF4
:101C20008C93ADE2B0E0EDE2F0E0808180648C93D3
:101C3000CF91DF910895DF93CF93CDB7DEB728978B
:101C40000FB6F894DEBF0FBECDBF9F838E8368872B
:101C50001A821B821C821D8219828E819F810097AD
:101C600019F482E0898336C0EFE2F0E08885808352
:101C70000BC08A819B81AC81BD810196A11DB11DE4
:101C80008A839B83AC83BD83EEE2F0E0808188236E
:101C900064F08A819B81AC81BD81803523EC920701
:101CA00020E0A20720E0B20721F78A819B81AC8166
:101CB000BD81803523EC920720E0A20720E0B20727
:101CC00019F481E0898306C0EFE2F0E08081EE81C3
:101CD000FF818083898128960FB6F894DEBF0FBEFE
:101CE000CDBFCF91DF910895DF93CF93CDB7DEB70E
:101CF00027970FB6F894DEBF0FBECDBF9B838A83B4
:101D00007D836C835F834E8319828A819B810097D8
:101D100021F08E819F81009719F482E089832BC086
:101D20008091CA01882329F581E08093CA018A81C4
:101D30009B819093C7018093C6018C819D81909374
:101D4000C9018093C8018E819F819093C5018093C2
:101D5000C401AFE2B0E0E091C801F091C901808117
:101D60008C93ADE2B0E0EDE2F0E0808180688C938E
:101D700002C083E08983898127960FB6F894DEBF7D
:101D80000FBECDBFCF91DF9108951F920F920FB676
:101D90000F9211242F933F934F935F936F937F93F1
:101DA0008F939F93AF93BF93EF93FF93DF93CF9363
:101DB000CDB7DEB7A091C601B091C701EFE2F0E068
:101DC00080818C931092CA01E091C401F091C50109
:101DD0000995ADE2B0E0EDE2F0E080818F778C9381
:101DE000CF91DF91FF91EF91BF91AF919F918F9133
:101DF0007F916F915F914F913F912F910F900FBE07
:101E00000F901F901895DF93CF93CDB7DEB76297F1
:101E10000FB6F894DEBF0FBECDBF9C878B876D8752
:101E2000CE0101969F878E87E8EAF1E0F98BE88B77
:101E3000FAE0FA8BE889F989008088899989019606
:101E4000998B888BEE85FF8500828E859F85019614
:101E50009F878E879A8991509A8BEA89EE2351F752
:101E6000EB85FC8583818823D9F4EB85FC85818112
:101E7000EB85FC859281692F40E00E94EC0AEB859E
:101E8000FC8540818D85282F30E0CE010196FC0134
:101E9000E20FF31F9081842F692F0E94FE0B1FC059
:101EA000EB85FC8583818130D1F4EB85FC858181D4
:101EB000EB85FC859281692F41E00E94EC0AEB855D
:101EC000FC8540818D85282F30E0CE010196FC01F4
:101ED000E20FF31F9081842F692F0E94FE0B629600
:101EE0000FB6F894DEBF0FBECDBFCF91DF9108953E
:101EF000DF93CF93CDB7DEB7A2970FB6F894DEBFCE
:101F00000FBECDBF9E8F8D8F78A36F8F49A32AA35D
:101F10008D8D9E8D69A10E94030FEF8DF8A18181A7
:101F2000EF8DF8A19281692F41E00E94EC0A80E0D8
:101F300090E0A0E2B1E4898F9A8FAB8FBC8F698D5E
:101F40007A8D8B8D9C8D20E030E04AEF54E40E9426
:101F50001F02DC01CB018D8B9E8BAF8BB88F6D89FF
:101F60007E898F89988D20E030E040E85FE30E9411
:101F7000790388232CF481E090E09C8B8B8B3FC00D
:101F80006D897E898F89988D20E03FEF4FE757E478
:101F90000E94190318164CF5698D7A8D8B8D9C8DD6
:101FA00020E030E040E251E40E941F02DC01CB015E
:101FB000BC01CD010E944900DC01CB019C8B8B8BC5
:101FC0000FC088EC90E09A8B898B89899A89019758
:101FD000F1F79A8B898B8B899C8901979C8B8B8BD2
:101FE0008B899C89009769F714C06D897E898F89D8
:101FF000988D0E944900DC01CB019C8B8B8B8B89D7
:102000009C89988B8F878F8598890197F1F7988B9A
:102010008F878F8D98A16AA10E94030FED8DFE8D91
:102020008181ED8DFE8D9281692F41E00E94EC0A45
:1020300080E090E0A0E2B1E48B879C87AD87BE870B
:102040006B857C858D859E8520E030E04AEF54E4E9
:102050000E941F02DC01CB018F839887A987BA8772
:102060006F81788589859A8520E030E040E85FE3DC
:102070000E94790388232CF481E090E09E838D8375
:102080003FC06F81788589859A8520E03FEF4FE7D3
:1020900057E40E94190318164CF56B857C858D85D5
:1020A0009E8520E030E040E251E40E941F02DC0106
:1020B000CB01BC01CD010E944900DC01CB019E8314
:1020C0008D830FC088EC90E09C838B838B819C81F7
:1020D0000197F1F79C838B838D819E8101979E836D
:1020E0008D838D819E81009769F714C06F817885FB
:1020F00089859A850E944900DC01CB019E838D83EE
:102100008D819E819A83898389819A810197F1F7D4
:102110009A838983A2960FB6F894DEBF0FBECDBF17
:10212000CF91DF910895DF93CF9300D000D0CDB74A
:10213000DEB789836A838981282F30E03C832B8333
:102140008B819C818130910521F12B813C81223052
:1021500031052CF48B819C81009761F046C02B8166
:102160003C812230310521F18B819C8183309105A6
:1021700071F13BC0A3E5B0E0E3E5F0E080818F7B47
:102180008C93A3E5B0E0E3E5F0E08081877F8C935A
:102190002CC0A3E5B0E0E3E5F0E0808180648C939F
:1021A000A3E5B0E0E3E5F0E08081877F8C931DC07C
:1021B000A3E5B0E0E3E5F0E080818F7B8C93A3E5BD
:1021C000B0E0E3E5F0E0808188608C930EC0A3E589
:1021D000B0E0E3E5F0E0808180648C93A3E5B0E0BB
:1021E000E3E5F0E0808188608C93A3E5B0E0E3E56F
:1021F000F0E08081887F8C93A3E5B0E0E3E5F0E038
:1022000090818A81892B8C930F900F900F900F9063
:10221000CF91DF910895DF93CF9300D00F92CDB788
:10222000DEB789838981282F30E03B832A838A8126
:102230009B8181309105C1F02A813B81223031059B
:1022400011F18A819B81009761F5A3E5B0E0E3E598
:10225000F0E080818F7E8C93A3E5B0E0E3E5F0E0D1
:1022600080818F7D8C931DC0A3E5B0E0E3E5F0E0B5
:1022700080818F7E8C93A3E5B0E0E3E5F0E0808180
:1022800080628C930EC0A3E5B0E0E3E5F0E08081CE
:1022900080618C93A3E5B0E0E3E5F0E080818062AB
:1022A0008C930F900F900F90CF91DF910895DF9353
:1022B000CF930F92CDB7DEB78983ECE5F0E089814B
:1022C00080830F90CF91DF910895DF93CF930F928A
:1022D000CDB7DEB78983E2E5F0E0898180830F9096
:1022E000CF91DF910895DF93CF93CDB7DEB7E2E5CD
:1022F000F0E08081CF91DF910895DF93CF93CDB748
:10230000DEB7A9E5B0E0E9E5F0E0808182608C937A
:10231000CF91DF910895DF93CF93CDB7DEB7A9E5D5
:10232000B0E0E9E5F0E080818D7F8C93CF91DF9183
:102330000895DF93CF93CDB7DEB7A9E5B0E0E9E527
:10234000F0E0808181608C93CF91DF910895DF93DD
:10235000CF93CDB7DEB7A9E5B0E0E9E5F0E0808145
:102360008E7F8C93CF91DF910895DF93CF9300D030
:10237000CDB7DEB78A838A81853620F58A81482FDA
:1023800050E0CA019C01220F331FC9019695982F76
:10239000882797958795821B930B840F951F24E6BA
:1023A00030E0B9010E948C2ACB0189838981823077
:1023B00030F0ECE5F0E089818095808303C0ECE5A6
:1023C000F0E010820F900F90CF91DF910895DF938E
:1023D000CF9300D000D0CDB7DEB79B838A836C83C8
:1023E00019828A819B81009769F08C81882F90E007
:1023F000880F991FFC01E553FE4F8A819B819183D1
:10240000808302C082E0898389810F900F900F90B2
:102410000F90CF91DF9108951F920F920FB60F92F8
:1024200011242F933F934F935F936F937F938F93D9
:102430009F93AF93BF93EF93FF93DF93CF93CDB76A
:10244000DEB78091CD019091CE01009729F0E09107
:10245000CD01F091CE010995CF91DF91FF91EF91E0
:10246000BF91AF919F918F917F916F915F914F91AC
:102470003F912F910F900FBE0F901F9018951F92B4
:102480000F920FB60F9211242F933F934F935F93A8
:102490006F937F938F939F93AF93BF93EF93FF932C
:1024A000DF93CF93CDB7DEB78091CB019091CC0174
:1024B000009729F0E091CB01F091CC010995CF91E3
:1024C000DF91FF91EF91BF91AF919F918F917F919C
:1024D0006F915F914F913F912F910F900FBE0F9091
:1024E0001F901895DF93CF9300D000D0CDB7DEB703
:1024F00089836A838981282F30E03C832B838B81F9
:102500009C818730910509F424C12B813C812830BE
:1025100031054CF58B819C818330910509F4A5C070
:102520002B813C81243031058CF48B819C8181305E
:10253000910509F460C02B813C81223031050CF0FB
:1025400077C08B819C810097C9F1EAC12B813C81C6
:102550002530310509F4C3C08B819C8186309105FB
:102560000CF0DAC09FC02B813C812B30310509F47F
:1025700064C18B819C818C3091056CF42B813C81F2
:102580002930310509F41FC18B819C818A30910566
:102590000CF036C1FBC02B813C812E30310509F493
:1025A00086C18B819C818F30910509F49DC12B815F
:1025B0003C812C30310509F45DC1B2C1AFE4B0E01B
:1025C000EFE4F0E080818E7F8C93AFE4B0E0EFE445
:1025D000F0E080818D7F8C93AEE4B0E0EEE4F0E03B
:1025E0008081877F8C93AEE4B0E0EEE4F0E0808100
:1025F0008F7E8C9395C1AFE4B0E0EFE4F0E0808192
:1026000081608C93AFE4B0E0EFE4F0E080818D7FF7
:102610008C93AEE4B0E0EEE4F0E08081877F8C93B1
:10262000AEE4B0E0EEE4F0E080818F7E8C9378C180
:10263000AFE4B0E0EFE4F0E080818E7F8C93AFE414
:10264000B0E0EFE4F0E0808182608C93AEE4B0E033
:10265000EEE4F0E08081877F8C93AEE4B0E0EEE4BE
:10266000F0E080818F7E8C935BC1AFE4B0E0EFE45B
:10267000F0E0808181608C93AFE4B0E0EFE4F0E0C3
:10268000808182608C93AEE4B0E0EEE4F0E0808183
:10269000877F8C93AEE4B0E0EEE4F0E080818F7E43
:1026A0008C933EC1AFE4B0E0EFE4F0E080818E7F38
:1026B0008C93AFE4B0E0EFE4F0E080818D7F8C9309
:1026C000AEE4B0E0EEE4F0E0808188608C93AEE4AC
:1026D000B0E0EEE4F0E080818F7E8C9321C1AFE426
:1026E000B0E0EFE4F0E0808181608C93AFE4B0E093
:1026F000EFE4F0E080818D7F8C93AEE4B0E0EEE417
:10270000F0E0808188608C93AEE4B0E0EEE4F0E02D
:1027100080818F7E8C9304C1AFE4B0E0EFE4F0E001
:1027200080818E7F8C93AFE4B0E0EFE4F0E08081B5
:1027300082608C93AEE4B0E0EEE4F0E080818860EB
:102740008C93AEE4B0E0EEE4F0E080818F7E8C9379
:10275000E7C0AFE4B0E0EFE4F0E0808181608C930B
:10276000AFE4B0E0EFE4F0E0808182608C93AEE40F
:10277000B0E0EEE4F0E0808188608C93AEE4B0E0FD
:10278000EEE4F0E080818F7E8C93CAC0AFE4B0E0CD
:10279000EFE4F0E080818E7F8C93AFE4B0E0EFE473
:1027A000F0E080818D7F8C93AEE4B0E0EEE4F0E069
:1027B0008081877F8C93AEE4B0E0EEE4F0E080812E
:1027C00080618C93ADC0AFE4B0E0EFE4F0E08081D5
:1027D00081608C93AFE4B0E0EFE4F0E080818D7F26
:1027E0008C93AEE4B0E0EEE4F0E08081877F8C93E0
:1027F000AEE4B0E0EEE4F0E0808180618C9390C0C4
:10280000AFE4B0E0EFE4F0E080818E7F8C93AFE442
:10281000B0E0EFE4F0E0808182608C93AEE4B0E061
:10282000EEE4F0E08081877F8C93AEE4B0E0EEE4EC
:10283000F0E0808180618C9373C0AFE4B0E0EFE49E
:10284000F0E0808181608C93AFE4B0E0EFE4F0E0F1
:10285000808182608C93AEE4B0E0EEE4F0E08081B1
:10286000877F8C93AEE4B0E0EEE4F0E0808180619D
:102870008C9356C0AFE4B0E0EFE4F0E080818E7F4F
:102880008C93AFE4B0E0EFE4F0E080818D7F8C9337
:10289000AEE4B0E0EEE4F0E0808188608C93AEE4DA
:1028A000B0E0EEE4F0E0808180618C9339C0AFE469
:1028B000B0E0EFE4F0E080818E7F8C93AFE4B0E095
:1028C000EFE4F0E0808182608C93AEE4B0E0EEE46F
:1028D000F0E0808188608C93AEE4B0E0EEE4F0E05C
:1028E000808180618C931CC0AFE4B0E0EFE4F0E045
:1028F000808181608C93AFE4B0E0EFE4F0E0808110
:1029000082608C93AEE4B0E0EEE4F0E08081886019
:102910008C93AEE4B0E0EEE4F0E0808180618C93D3
:10292000AEE4B0E0EEE4F0E08081887F8C93AEE42A
:10293000B0E0EEE4F0E090818A81892B8C930F90D7
:102940000F900F900F90CF91DF910895DF93CF9369
:10295000CDB7DEB72A970FB6F894DEBF0FBECDBF56
:1029600089836A838981282F30E03A87298789857E
:102970009A8581309105C1F129853A85223031054A
:1029800009F45FC089859A85009709F086C08A811D
:10299000282F30E038872F838F819885009731F07A
:1029A0002F8138852130310581F077C0AFE4B0E068
:1029B000EFE4F0E080818F7B8C93AFE4B0E0EFE454
:1029C000F0E080818F778C9368C0AFE4B0E0EFE4F3
:1029D000F0E080818F7E8C93AFE4B0E0EFE4F0E034
:1029E00080818F7D8C9359C08A81282F30E03E836F
:1029F0002D838D819E81009731F02D813E81213084
:102A0000310581F04AC0AFE4B0E0EFE4F0E080814E
:102A10008F7B8C93AFE4B0E0EFE4F0E080818068DE
:102A20008C933BC0AFE4B0E0EFE4F0E080818F7EB8
:102A30008C93AFE4B0E0EFE4F0E0808180628C93AF
:102A40002CC08A81282F30E03C832B838B819C8192
:102A5000009731F02B813C812130310581F01DC080
:102A6000AFE4B0E0EFE4F0E0808180648C93AFE409
:102A7000B0E0EFE4F0E0808180688C930EC0AFE4BA
:102A8000B0E0EFE4F0E0808180618C93AFE4B0E0EF
:102A9000EFE4F0E0808180628C932A960FB6F89480
:102AA000DEBF0FBECDBFCF91DF910895DF93CF93EF
:102AB00000D0CDB7DEB79A838983EAE4F0E089815C
:102AC0009A81918380830F900F90CF91DF91089529
:102AD000DF93CF9300D0CDB7DEB79A838983E8E444
:102AE000F0E089819A81918380830F900F90CF913C
:102AF000DF910895DF93CF9300D0CDB7DEB79A83EF
:102B00008983ECE4F0E089819A81918380830F903E
:102B10000F90CF91DF910895DF93CF93CDB7DEB7BC
:102B2000ECE4F0E080819181CF91DF910895DF9313
:102B3000CF93CDB7DEB78EE062E00E94721281E0E3
:102B400060E00E94A614CF91DF910895EF92FF926A
:102B50000F931F93DF93CF9300D000D0CDB7DEB794
:102B60009C838B838B819C818536910580F58B813D
:102B70009C817C0100E010E0E6E4F0E0808191813E
:102B800001969C0140E050E0C801B7010E946D2A07
:102B9000DC01CB0124E630E040E050E0BC01CD0197
:102BA0000E94A02ADA01C9019A83898389819A81C6
:102BB0008230910540F0EAE4F0E089819A81019742
:102BC0009183808304C0EAE4F0E0118210820F90C8
:102BD0000F900F900F90CF91DF911F910F91FF9069
:102BE000EF900895DF93CF93CDB7DEB7AEE4B0E0BA
:102BF000EEE4F0E0808180648C93A9E5B0E0E9E543
:102C0000F0E0808180628C93CF91DF910895DF9313
:102C1000CF9300D0CDB7DEB78A8319828A81813005
:102C200041F4AEE4B0E0EEE4F0E0808180648C93A7
:102C30000DC08A81882341F4AEE4B0E0EEE4F0E018
:102C400080818F7B8C9302C081E0898389810F9082
:102C50000F90CF91DF910895DF93CF93CDB7DEB77B
:102C6000A9E5B0E0E9E5F0E0808180628C93CF9146
:102C7000DF910895DF93CF93CDB7DEB7A9E5B0E03C
:102C8000E9E5F0E080818F7D8C93CF91DF9108950D
:102C9000DF93CF93CDB7DEB7E6E4F0E0808191819A
:102CA000CF91DF910895DF93CF9300D0CDB7DEB7FA
:102CB0009A838983E6E4F0E089819A819183808315
:102CC0000F900F90CF91DF910895DF93CF93CDB701
:102CD000DEB7A9E5B0E0E9E5F0E0808184608C939F
:102CE000CF91DF910895DF93CF93CDB7DEB7A9E5FC
:102CF000B0E0E9E5F0E080818B7F8C93CF91DF91AC
:102D00000895DF93CF9300D000D0CDB7DEB79B837B
:102D10008A836C8319828A819B81009769F08C81F8
:102D2000882F90E0880F991FFC01E153FE4F8A81A4
:102D30009B819183808302C082E0898389810F9087
:102D40000F900F900F90CF91DF9108951F920F92E7
:102D50000FB60F9211242F933F934F935F936F936E
:102D60007F938F939F93AF93BF93EF93FF93DF93E3
:102D7000CF93CDB7DEB78091CF019091D00100976E
:102D800029F0E091CF01F091D0010995CF91DF9129
:102D9000FF91EF91BF91AF919F918F917F916F9133
:102DA0005F914F913F912F910F900FBE0F901F9009
:102DB00018951F920F920FB60F9211242F933F93E5
:102DC0004F935F936F937F938F939F93AF93BF9333
:102DD000EF93FF93DF93CF93CDB7DEB78091D1010F
:102DE0009091D201009729F0E091D101F091D201A8
:102DF0000995CF91DF91FF91EF91BF91AF919F9195
:102E00008F917F916F915F914F913F912F910F9093
:102E10000FBE0F901F9018951F920F920FB60F9232
:102E200011242F933F934F935F936F937F938F93CF
:102E30009F93AF93BF93EF93FF93DF93CF93CDB760
:102E4000DEB78091D3019091D401009729F0E091F1
:102E5000D301F091D4010995CF91DF91FF91EF91CA
:102E6000BF91AF919F918F917F916F915F914F91A2
:102E70003F912F910F900FBE0F901F9018951F92AA
:102E80000F920FB60F9211242F933F934F935F939E
:102E90006F937F938F939F93AF93BF93EF93FF9322
:102EA000DF93CF93CDB7DEB78091D5019091D60156
:102EB000009729F0E091D501F091D6010995CF91C5
:102EC000DF91FF91EF91BF91AF919F918F917F9192
:102ED0006F915F914F913F912F910F900FBE0F9087
:102EE0001F901895DF93CF9300D000D0CDB7DEB7F9
:102EF00089836A838981282F30E03C832B838B81EF
:102F00009C818130910521F12B813C81223031055A
:102F10002CF48B819C81009761F046C02B813C8111
:102F20002230310521F18B819C818330910571F133
:102F30003BC0A5E4B0E0E5E4F0E080818F7B8C93BA
:102F4000A5E4B0E0E5E4F0E08081877F8C932CC0BD
:102F5000A5E4B0E0E5E4F0E0808180648C93A5E432
:102F6000B0E0E5E4F0E08081877F8C931DC0A5E4AC
:102F7000B0E0E5E4F0E080818F7B8C93A5E4B0E0E5
:102F8000E5E4F0E0808188608C930EC0A5E4B0E0B9
:102F9000E5E4F0E0808180648C93A5E4B0E0E5E4B2
:102FA000F0E0808188608C93A5E4B0E0E5E4F0E097
:102FB0008081887F8C93A5E4B0E0E5E4F0E0908127
:102FC0008A81892B8C930F900F900F900F90CF9147
:102FD000DF910895DF93CF9300D00F92CDB7DEB786
:102FE00089838981282F30E03B832A838A819B81D2
:102FF00081309105C1F02A813B812230310511F1E8
:103000008A819B81009761F5A5E4B0E0E5E4F0E0FA
:1030100080818F7E8C93A5E4B0E0E5E4F0E08081D0
:103020008F7D8C931DC0A5E4B0E0E5E4F0E08081E5
:103030008F7E8C93A5E4B0E0E5E4F0E080818062CF
:103040008C930EC0A5E4B0E0E5E4F0E080818061FF
:103050008C93A5E4B0E0E5E4F0E0808180628C939D
:103060000F900F900F90CF91DF910895DF93CF9342
:103070000F92CDB7DEB78983E3E4F0E089818083E6
:103080000F90CF91DF910895DF93CF930F92CDB73B
:10309000DEB78983E4E4F0E0898180830F90CF91EB
:1030A000DF910895DF93CF93CDB7DEB7E4E4F0E08E
:1030B0008081CF91DF910895DF93CF93CDB7DEB7B5
:1030C000A9E5B0E0E9E5F0E0808180688C93CF91DC
:1030D000DF910895DF93CF93CDB7DEB7A9E5B0E0D8
:1030E000E9E5F0E080818F778C93CF91DF910895AF
:1030F000DF93CF93CDB7DEB7A9E5B0E0E9E5F0E027
:10310000808180648C93CF91DF910895DF93CF937A
:10311000CDB7DEB7A9E5B0E0E9E5F0E080818F7BCF
:103120008C93CF91DF910895DF93CF9300D0CDB7EB
:10313000DEB78A838A81853620F58A81482F50E060
:10314000CA019C01220F331FC9019695982F882729
:1031500097958795821B930B840F951F24E630E08B
:10316000B9010E948C2ACB0189838981823030F099
:10317000E3E4F0E089818095808303C0E3E4F0E03C
:1031800010820F900F90CF91DF910895DF93CF932E
:1031900000D000D0CDB7DEB79B838A836C831982C1
:1031A0008A819B81009769F08C81882F90E0880F3D
:1031B000991FFC01E952FE4F8A819B819183808394
:1031C00002C082E0898389810F900F900F900F9049
:1031D000CF91DF9108951F920F920FB60F92112495
:1031E0002F933F934F935F936F937F938F939F930F
:1031F000AF93BF93EF93FF93DF93CF93CDB7DEB73A
:103200008091D9019091DA01009729F0E091D901DC
:10321000F091DA010995CF91DF91FF91EF91BF9184
:10322000AF919F918F917F916F915F914F913F915E
:103230002F910F900FBE0F901F9018951F920F9215
:103240000FB60F9211242F933F934F935F936F9379
:103250007F938F939F93AF93BF93EF93FF93DF93EE
:10326000CF93CDB7DEB78091D7019091D801009769
:1032700029F0E091D701F091D8010995CF91DF9124
:10328000FF91EF91BF91AF919F918F917F916F913E
:103290005F914F913F912F910F900FBE0F901F9014
:1032A0001895AF92BF92CF92DF92EF92FF920F9359
:1032B0001F93DF93CF93CDB7DEB7CF58D0400FB673
:1032C000F894DEBF0FBECDBF0E94720D0E9422098E
:1032D0000E94A3050E94DC0D83E062E00E9493102F
:1032E00081E00E940B110E94970D0E94DE0C0E944B
:1032F000B8218091DB018430E1F70E943A281092D6
:10330000DB0181E00E94E60780E690E00E94B009C0
:10331000FE01E558FF4F80E090E0AAE7B4E4808327
:103320009183A283B3838E0109581F4FFE01E55894
:10333000FF4F608171818281938120E030E04AEF0C
:1033400054E40E941F02DC01CB01F80180839183C9
:10335000A283B383FE01E958FF4F608171818281AE
:10336000938120E030E040E85FE30E947903882306
:1033700044F4FE01EB58FF4F81E090E0918380839D
:1033800064C0FE01E958FF4F6081718182819381A1
:1033900020E03FEF4FE757E40E94190318160CF0A6
:1033A00043C0FE01E558FF4F6081718182819381A6
:1033B00020E030E040E251E40E941F02DC01CB013A
:1033C0008E010B581F4FBC01CD010E944900DC014A
:1033D000CB01F801918380831FC0FE01ED58FF4FA0
:1033E00088EC90E091838083FE01ED58FF4F80814F
:1033F00091810197F1F7FE01ED58FF4F9183808392
:10340000DE01AB58BF4FFE01EB58FF4F8081918129
:10341000019711969C938E93FE01EB58FF4F80818C
:1034200091810097D1F627C08E010B581F4FFE01E6
:10343000E958FF4F60817181828193810E94490028
:10344000DC01CB01F80191838083DE01AF58BF4FCF
:10345000FE01EB58FF4F808191818D939C93FE017B
:10346000EF58FF4F808191810197F1F7FE01EF58EE
:10347000FF4F9183808381E00E94E6078EE690E013
:103480000E94B00980E068E00E94D90986E790E0D8
:103490000E94B00981E060E00E94D9098EE790E0C7
:1034A0000E94B00981E068E00E94D90986E890E0B6
:1034B0000E94B0090E94FA0CFE01E257FF4F808380
:1034C000FE01E257FF4F80818F3FA1F3FE01E257DB
:1034D000FF4F8081813009F051C048C081E00E94D7
:1034E000E6078DE890E00E94B00980E067E00E9466
:1034F000D90983E990E00E94B00981E060E00E9470
:10350000D90988E990E00E94B00981E067E00E9453
:10351000D9098EE990E00E94B0090E94FA0CFE01E0
:10352000E257FF4F8083FE01E257FF4F80818F3FBC
:10353000A1F3FE01E257FF4F8081813029F481E041
:1035400060E041E00E94EC0AFE01E257FF4F8081FB
:10355000823029F481E060E040E00E94EC0AFE0144
:10356000E257FF4F8081882309F485CFFE01E2579F
:10357000FF4F8081882309F0B1CFBBCEFE01E25717
:10358000FF4F8081823009F051C048C081E00E9425
:10359000E60784EA90E00E94B00980E067E00E94BC
:1035A000D90983E990E00E94B00981E060E00E94BF
:1035B000D90988E990E00E94B00981E067E00E94A3
:1035C000D9098EE990E00E94B0090E94FA0CFE0130
:1035D000E257FF4F8083FE01E257FF4F80818F3F0C
:1035E000A1F3FE01E257FF4F8081813029F480E092
:1035F00063E041E00E94EC0AFE01E257FF4F808148
:10360000823029F480E063E040E00E94EC0AFE0191
:10361000E257FF4F8081882309F42DCFFE01E25746
:10362000FF4F8081882309F0B1CF63CEFE01E257BE
:10363000FF4F8081833009F051C048C081E00E9473
:10364000E6078AEA90E00E94B00980E067E00E9405
:10365000D90983E990E00E94B00981E060E00E940E
:10366000D90988E990E00E94B00981E067E00E94F2
:10367000D9098EE990E00E94B0090E94FA0CFE017F
:10368000E257FF4F8083FE01E257FF4F80818F3F5B
:10369000A1F3FE01E257FF4F8081813029F480E0E1
:1036A00062E041E00E94EC0AFE01E257FF4F808198
:1036B000823029F480E062E040E00E94EC0AFE01E2
:1036C000E257FF4F8081882309F4D5CEFE01E257EF
:1036D000FF4F8081882309F0B1CF0BCEFE01E25766
:1036E000FF4F8081843009F0C9C581E00E94E60760
:1036F0002CED31E080E0B9010E94D4052DED31E0E0
:1037000081E0B9010E94D405FE01E357FF4F80918B
:10371000DC018083FE01E457FF4F8091DD0180834F
:103720000E94FA0CFE01E257FF4F8083FE01E3572F
:10373000FF4F8081882F90E0A0E0B0E028E833E1DF
:1037400040E050E0BC01CD010E946D2ADC01CB01BC
:10375000892F9A2FAB2FBB27FE01E657FF4F91838E
:103760008083FE01E457FF4F8081882F90E0A0E026
:10377000B0E028E833E140E050E0BC01CD010E9418
:103780006D2ADC01CB01892F9A2FAB2FBB27FE01BD
:10379000E857FF4F918380838E010A571F4FFE0128
:1037A000E657FF4F808191812AE030E0B9010E9405
:1037B0008C2ACB01F80191838083DE01AC57BF4F87
:1037C000FE01E857FF4F808191818D939C93FE010C
:1037D000E457FF4F8081882F90E0A0E0B0E000D058
:1037E00000D0EDB7FEB7319680839183A283B38377
:1037F00060E070E080E090E02FEF30E040E050E0EB
:10380000EE24FF2487010F2EFFEFAF2EF0E0BF2E36
:10381000F0E0CF2EF0E0DF2EF02D0E94CC290F90AB
:103820000F900F900F90DC01CB01FE01E058FF4F8D
:1038300080839183A283B383FE01E058FF4F808190
:1038400080950E945711FE01E058FF4F8081FE01D4
:10385000E158FF4F8095808380E060E00E94D909A5
:1038600080EB90E00E94B00980E065E00E94D909F9
:10387000FE01EA57FF4F80819181CC01A0E0B0E0CA
:10388000BC01CD0123E030E040E050E00E94380A66
:1038900081E060E00E94D90987EB90E00E94B009C6
:1038A00081E066E00E94D909FE01E158FF4F808166
:1038B000882F90E0A0E0B0E0BC01CD0123E030E033
:1038C00040E050E00E94380A80E06AE00E94D90996
:1038D0008EE990E00E94B00981E06AE00E94D90977
:1038E0008EEB90E00E94B009FE01E359FF4F80E0AB
:1038F00090E0A8E4B3E480839183A283B3838E0134
:1039000007591F4FFE01E359FF4F6081718182818A
:10391000938120E030E04AEF54E40E941F02DC0172
:10392000CB01F80180839183A283B383FE01E75921
:10393000FF4F608171818281938120E030E040E817
:103940005FE30E947903882344F4FE01E959FF4FA5
:1039500081E090E09183808364C0FE01E759FF4FCE
:10396000608171818281938120E03FEF4FE757E4CE
:103970000E94190318160CF043C0FE01E359FF4FD3
:10398000608171818281938120E030E040E251E4E6
:103990000E941F02DC01CB018E0109591F4FBC019F
:1039A000CD010E944900DC01CB01F80191838083A5
:1039B0001FC0FE01EB59FF4F88EC90E0918380839C
:1039C000FE01EB59FF4F808191810197F1F7FE01D4
:1039D000EB59FF4F91838083DE01A959BF4FFE0150
:1039E000E959FF4F80819181019711969C938E93A5
:1039F000FE01E959FF4F808191810097D1F628C0DF
:103A00008E0109591F4FFE01E759FF4F60817181F7
:103A1000828193810E944900DC01CB01F8019183EE
:103A20008083DE01AD59BF4FFE01E959FF4F808110
:103A3000918111969C938E93FE01ED59FF4F8081E9
:103A400091810197F1F7FE01ED59FF4F918380833A
:103A5000FE01E257FF4F8081882309F40CCDFE015F
:103A6000E257FF4F8081813009F03FCEFFC381E0F4
:103A70000E94E60780E060E00E94D90985EC90E0B2
:103A80000E94B00981E060E00E94D9098EEC90E0CC
:103A90000E94B00980E06AE00E94D9098EE990E0B6
:103AA0000E94B00981E06AE00E94D90988ED90E0A7
:103AB0000E94B0090E94FA0CFE01E257FF4F80837A
:103AC000FE01E257FF4F80818F3FA1F3FE01E257D5
:103AD000FF4F8081882309F408CEFE01E257FF4F93
:103AE0008081813009F0BBC0CE0181579F4F69E0D2
:103AF0000E941B0EFE01E15AFF4F80E090E0A0E221
:103B0000B1E480839183A283B3838E01055A1F4F52
:103B1000FE01E15AFF4F608171818281938120E033
:103B200030E04AEF54E40E941F02DC01CB01F801AF
:103B300080839183A283B383FE01E55AFF4F6081A6
:103B400071818281938120E030E040E85FE30E9450
:103B50007903882344F4FE01E75AFF4F81E090E0A7
:103B60009183808364C0FE01E55AFF4F60817181BB
:103B70008281938120E03FEF4FE757E40E941903D1
:103B800018160CF043C0FE01E15AFF4F60817181AD
:103B90008281938120E030E040E251E40E941F02E4
:103BA000DC01CB018E01075A1F4FBC01CD010E94E1
:103BB0004900DC01CB01F801918380831FC0FE0125
:103BC000E95AFF4F88EC90E091838083FE01E95A27
:103BD000FF4F808191810197F1F7FE01E95AFF4F74
:103BE00091838083DE01A75ABF4FFE01E75AFF4F42
:103BF00080819181019711969C938E93FE01E75AE3
:103C0000FF4F808191810097D1F630C38E01075A12
:103C10001F4FFE01E55AFF4F6081718182819381C0
:103C20000E944900DC01CB01F80191838083DE0111
:103C3000AB5ABF4FFE01E75AFF4F80819181119629
:103C40009C938E93FE01EB5AFF4F808191810197E7
:103C5000F1F7FE01EB5AFF4F9183808307C3FE010A
:103C6000E257FF4F8081823009F0BBC0CE018157FF
:103C70009F4F68E00E941B0EFE01EF5AFF4F80E04D
:103C800090E0A0E2B1E480839183A283B3838E01AC
:103C9000035B1F4FFE01EF5AFF4F608171818281EC
:103CA000938120E030E04AEF54E40E941F02DC01DF
:103CB000CB01F80180839183A283B383FE01E35B90
:103CC000FF4F608171818281938120E030E040E884
:103CD0005FE30E947903882344F4FE01E55BFF4F14
:103CE00081E090E09183808364C0FE01E35BFF4F3D
:103CF000608171818281938120E03FEF4FE757E43B
:103D00000E94190318160CF043C0FE01EF5AFF4F32
:103D1000608171818281938120E030E040E251E452
:103D20000E941F02DC01CB018E01055B1F4FBC010D
:103D3000CD010E944900DC01CB01F8019183808311
:103D40001FC0FE01E75BFF4F88EC90E0918380830A
:103D5000FE01E75BFF4F808191810197F1F7FE0142
:103D6000E75BFF4F91838083DE01A55BBF4FFE01C0
:103D7000E55BFF4F80819181019711969C938E9313
:103D8000FE01E55BFF4F808191810097D1F66EC205
:103D90008E01055B1F4FFE01E35BFF4F6081718168
:103DA000828193810E944900DC01CB01F80191835B
:103DB0008083DE01A95BBF4FFE01E55BFF4F808181
:103DC000918111969C938E93FE01E95BFF4F808158
:103DD00091810197F1F7FE01E95BFF4F91838083A9
:103DE00045C2FE01E257FF4F8081833009F0C4C114
:103DF000BBC181E00E94E60780E060E00E94D90933
:103E00008FED90E00E94B00981E060E00E94D90946
:103E10008AEE90E00E94B00981E06BE00E94D9092F
:103E20008EE990E00E94B0090E94FA0CFE01E25770
:103E3000FF4F8083FE01E257FF4F80818F3FA1F348
:103E4000FE01E257FF4F8081882309F410CEFE0166
:103E5000E257FF4F8081813009F08CC0CE0181573D
:103E60009F4F6AE00E941B0EFE01ED5BFF4F80E05A
:103E700090E0A0E2B1E480839183A283B3838E01BA
:103E8000015C1F4FFE01ED5BFF4F608171818281FC
:103E9000938120E030E04AEF54E40E941F02DC01ED
:103EA000CB01F80180839183A283B383FE01FF9647
:103EB000608171818281938120E030E040E85FE39E
:103EC0000E94790388232CF481E090E09EAF8DAFAF
:103ED00046C0FE01FF96608171818281938120E05E
:103EE0003FEF4FE757E40E941903181664F5FE01EF
:103EF000ED5BFF4F608171818281938120E030E032
:103F000040E251E40E941F02DC01CB01BC01CD0163
:103F10000E944900DC01CB019EAF8DAF0FC088EC41
:103F200090E09CAF8BAF8BAD9CAD0197F1F79CAF50
:103F30008BAF8DAD9EAD01979EAF8DAF8DAD9EAD1C
:103F4000009769F711C1FE01FF966081718182813E
:103F500093810E944900DC01CB019EAF8DAF8DADF6
:103F60009EAD9AAF89AF89AD9AAD0197F1F79AAF3F
:103F700089AFFAC0FE01E257FF4F8081823009F01D
:103F800079C0CE0181579F4F6BE00E941B0E80E0ED
:103F900090E0A0E2B1E48DAB9EABAFABB8AF6DA942
:103FA0007EA98FA998AD20E030E04AEF54E40E944A
:103FB0001F02DC01CB0189AB9AABABABBCAB69A9EF
:103FC0007AA98BA99CA920E030E040E85FE30E9439
:103FD000790388232CF481E090E098AB8FA73FC051
:103FE00069A97AA98BA99CA920E03FEF4FE757E484
:103FF0000E94190318164CF56DA97EA98FA998ADDA
:1040000020E030E040E251E40E941F02DC01CB01DD
:10401000BC01CD010E944900DC01CB0198AB8FA708
:104020000FC088EC90E09EA78DA78DA59EA5019757
:10403000F1F79EA78DA78FA598A9019798AB8FA799
:104040008FA598A9009769F78FC069A97AA98BA94C
:104050009CA90E944900DC01CB0198AB8FA78FA5DA
:1040600098A99CA78BA78BA59CA50197F1F79CA766
:104070008BA77AC081E00E94E60786EF90E00E945D
:10408000B00980E090E0AAEFB3E48FA398A7A9A7B6
:10409000BAA76FA178A589A59AA520E030E04AEFDC
:1040A00054E40E941F02DC01CB018BA39CA3ADA3AF
:1040B000BEA36BA17CA18DA19EA120E030E040E8D1
:1040C0005FE30E94790388232CF481E090E09AA3B7
:1040D00089A33FC06BA17CA18DA19EA120E03FEFF1
:1040E0004FE757E40E94190318164CF56FA178A505
:1040F00089A59AA520E030E040E251E40E941F0229
:10410000DC01CB01BC01CD010E944900DC01CB01E7
:104110009AA389A30FC088EC90E098A38F8F8F8D0E
:1041200098A10197F1F798A38F8F89A19AA1019780
:104130009AA389A389A19AA1009769F75ACE6BA186
:104140007CA18DA19EA10E944900DC01CB019AA314
:1041500089A389A19AA19E8F8D8F8D8D9E8D0197A8
:10416000F1F79E8F8D8F45CEFE01E257FF4F808184
:10417000882309F03ECE7AC081E00E94E60786EFF0
:1041800090E00E94B00980E090E0AAEFB3E4898F4C
:104190009A8FAB8FBC8F698D7A8D8B8D9C8D20E033
:1041A00030E04AEF54E40E941F02DC01CB018D8B0A
:1041B0009E8BAF8BB88F6D897E898F89988D20E01B
:1041C00030E040E85FE30E94790388232CF481E02B
:1041D00090E09C8B8B8B3FC06D897E898F89988DF9
:1041E00020E03FEF4FE757E40E94190318164CF503
:1041F000698D7A8D8B8D9C8D20E030E040E251E41A
:104200000E941F02DC01CB01BC01CD010E944900CC
:10421000DC01CB019C8B8B8B0FC088EC90E09A8BE0
:10422000898B89899A890197F1F79A8B898B8B8978
:104230009C8901979C8B8B8B8B899C89009769F754
:1042400016CC6D897E898F89988D0E944900DC018A
:10425000CB019C8B8B8B8B899C89988B8F878F85CF
:1042600098890197F1F7988B8F8701CCFE01E2576F
:10427000FF4F8081882309F0FACB37CA81E00E9482
:10428000E60786EF90E00E94B00980E090E0AAEF98
:10429000B3E48B879C87AD87BE876B857C858D85D6
:1042A0009E8520E030E04AEF54E40E941F02DC01CA
:1042B000CB018F839887A987BA876F817885898595
:1042C0009A8520E030E040E85FE30E94790388238C
:1042D0002CF481E090E09E838D833FC06F817885D0
:1042E00089859A8520E03FEF4FE757E40E94190344
:1042F00018164CF56B857C858D859E8520E030E019
:1043000040E251E40E941F02DC01CB01BC01CD015F
:104310000E944900DC01CB019E838D830FC088EC95
:1043200090E09C838B838B819C810197F1F79C8328
:104330008B838D819E8101979E838D838D819E814C
:10434000009769F798C86F81788589859A850E945A
:104350004900DC01CB019E838D838D819E819A83F0
:10436000898389819A810197F1F79A83898383C828
:104370000F931F93DF93CF93CDB7DEB7CA58D040CA
:104380000FB6F894DEBF0FBECDBFFE01ED58FF4F54
:1043900084E08083FE01EE58FF4F1082FE01EF584B
:1043A000FF4F1082CE0182589F4FCA57DF4F99832B
:1043B0008883C658D04042EB51E0C857DF4F59833D
:1043C0004883C858D04058E0C657DF4F5883CA5872
:1043D000D040C857DF4FE881F981C858D0400080ED
:1043E000C857DF4F48815981C858D0404F5F5F4F51
:1043F000C857DF4F59834883C858D040CA57DF4F4A
:10440000E881F981C658D0400082CA57DF4F488101
:104410005981C658D0404F5F5F4FCA57DF4F59830D
:104420004883C658D040C657DF4F5881CA58D0403D
:104430005150C657DF4F5883CA58D040C657DF4F38
:104440008881CA58D040882321F683E091E00E94F9
:10445000B00981E060E00E94D90984E191E00E9406
:10446000B009FE01E359FF4F80E090E0AAEFB4E409
:1044700080839183A283B3838E0107591F4FFE016E
:10448000E359FF4F608171818281938120E030E0A8
:104490004AEF54E40E941F02DC01CB01F801808343
:1044A0009183A283B383FE01E759FF4F608171813D
:1044B0008281938120E030E040E85FE30E9479034D
:1044C000882344F4FE01E959FF4F81E090E0918395
:1044D000808364C0FE01E759FF4F60817181828152
:1044E000938120E03FEF4FE757E40E94190318162D
:1044F0000CF043C0FE01E359FF4F6081718182815E
:10450000938120E030E040E251E40E941F02DC0190
:10451000CB018E0109591F4FBC01CD010E944900FA
:10452000DC01CB01F801918380831FC0FE01EB59B0
:10453000FF4F88EC90E091838083FE01EB59FF4FA1
:10454000808191810197F1F7FE01EB59FF4F918333
:104550008083DE01A959BF4FFE01E959FF4F8081D9
:104560009181019711969C938E93FE01E959FF4F1B
:10457000808191810097D1F627C08E0109591F4F84
:10458000FE01E759FF4F60817181828193810E9412
:104590004900DC01CB01F80191838083DE01AD5934
:1045A000BF4FFE01E959FF4F808191818D939C930C
:1045B000FE01ED59FF4F808191810197F1F7FE01D6
:1045C000ED59FF4F9183808381E00E94E60780E2EE
:1045D00091E00E94B00949C00E94FA0CFE01EC581B
:1045E000FF4F8083FE01EC58FF4F80818F3FA1F386
:1045F000FE01EE58FF4F8081282F30E0CE018B580E
:104600009F4FDC01A20FB31FFE01EC58FF4F8081CA
:104610008C93FE01EE58FF4F8081982F965F80E0CB
:10462000692F0E94D909FE01EE58FF4F8081282F83
:1046300030E0CE018B589F4FFC01E20FF31F8081C9
:10464000882F90E0A0E0B0E0BC01CD0121E030E097
:1046500040E050E00E94380ADE01AE58BF4FFE0134
:10466000EE58FF4F80818F5F8C93FE01EE58FF4F15
:10467000DE01AD58BF4F90818C91981708F4ACCFF4
:10468000FE01E15AFF4F80E090E0A8E4B3E48083AC
:104690009183A283B3838E01055A1F4FFE01E15A15
:1046A000FF4F608171818281938120E030E04AEF89
:1046B00054E40E941F02DC01CB01F8018083918346
:1046C000A283B383FE01E55AFF4F6081718182812D
:1046D000938120E030E040E85FE30E947903882383
:1046E00044F4FE01E75AFF4F81E090E0918380831C
:1046F00064C0FE01E55AFF4F608171818281938120
:1047000020E03FEF4FE757E40E94190318160CF022
:1047100043C0FE01E15AFF4F608171818281938124
:1047200020E030E040E251E40E941F02DC01CB01B6
:104730008E01075A1F4FBC01CD010E944900DC01C8
:10474000CB01F801918380831FC0FE01E95AFF4F1E
:1047500088EC90E091838083FE01E95AFF4F8081CD
:1047600091810197F1F7FE01E95AFF4F9183808310
:10477000DE01A75ABF4FFE01E75AFF4F80819181AA
:10478000019711969C938E93FE01E75AFF4F80810B
:1047900091810097D1F627C08E01075A1F4FFE0165
:1047A000E55AFF4F60817181828193810E944900A7
:1047B000DC01CB01F80191838083DE01AB5ABF4F4E
:1047C000FE01E75AFF4F808191818D939C93FE01FA
:1047D000EB5AFF4F808191810197F1F7FE01EB5A6F
:1047E000FF4F91838083FE01EE58FF4F108281E0DE
:1047F0000E94E6078BE291E00E94B00949C00E9446
:10480000FA0CFE01EC58FF4F8083FE01EC58FF4F7D
:1048100080818F3FA1F3FE01EE58FF4F8081282F4A
:1048200030E0CE0187589F4FDC01A20FB31FFE017D
:10483000EC58FF4F80818C93FE01EE58FF4F808132
:10484000982F955F80E0692F0E94D909FE01EE58EC
:10485000FF4F8081282F30E0CE0187589F4FFC0109
:10486000E20FF31F8081882F90E0A0E0B0E0BC0150
:10487000CD0121E030E040E050E00E94380ADE0146
:10488000AE58BF4FFE01EE58FF4F80818F5F8C9373
:10489000FE01EE58FF4FDE01AD58BF4F90818C9165
:1048A000981708F4ACCFFE01EF5AFF4F80E090E07C
:1048B000A8E4B3E480839183A283B3838E01035B76
:1048C0001F4FFE01EF5AFF4F6081718182819381FA
:1048D00020E030E04AEF54E40E941F02DC01CB01EB
:1048E000F80180839183A283B383FE01E35BFF4FD2
:1048F000608171818281938120E030E040E85FE354
:104900000E947903882344F4FE01E55BFF4F81E0B8
:1049100090E09183808364C0FE01E35BFF4F608180
:1049200071818281938120E03FEF4FE757E40E943D
:10493000190318160CF043C0FE01EF5AFF4F6081B7
:1049400071818281938120E030E040E251E40E9455
:104950001F02DC01CB018E01055B1F4FBC01CD01A5
:104960000E944900DC01CB01F801918380831FC0C4
:10497000FE01E75BFF4F88EC90E091838083FE01AE
:10498000E75BFF4F808191810197F1F7FE01E75BC3
:10499000FF4F91838083DE01A55BBF4FFE01E55B86
:1049A000FF4F80819181019711969C938E93FE0118
:1049B000E55BFF4F808191810097D1F628C08E0181
:1049C000055B1F4FFE01E35BFF4F608171818281B8
:1049D00093810E944900DC01CB01F801918380831F
:1049E000DE01A95BBF4FFE01E55BFF4F8081918136
:1049F00011969C938E93FE01E95BFF4F808191811C
:104A00000197F1F7FE01E95BFF4F91838083FE017F
:104A1000EE58FF4F10821092DB01FE01EE58FF4F5F
:104A2000108230C0FE01EE58FF4F8081282F30E009
:104A300083E090E0AC01421B530B9A01CE018758F2
:104A40009F4FFC01E20FF31F4081FE01EE58FF4F24
:104A50008081282F30E0CE018B589F4FFC01E20F60
:104A6000F31F8081481729F48091DB018F5F8093C9
:104A7000DB01DE01AE58BF4FFE01EE58FF4F8081D3
:104A80008F5F8C93FE01EE58FF4FDE01AD58BF4F94
:104A900090818C91981730F28091DB01843009F07D
:104AA000D4C081E00E94E60787E391E00E94B0094C
:104AB00080E068E00E94D909FE01EE58FF4F1082A5
:104AC0002CC0FE01EE58FF4F8081982F985F80E048
:104AD000692F0E94D909FE01EE58FF4F8081282FCF
:104AE00030E0CE018B589F4FFC01E20FF31F808115
:104AF000882F90E0A0E0B0E0BC01CD0121E030E0E3
:104B000040E050E00E94380ADE01AE58BF4FFE017F
:104B1000EE58FF4F80818F5F8C93FE01EE58FF4F60
:104B2000DE01AD58BF4F90818C91981750F2CE01A5
:104B300082589F4F60E041E024E00E94F709FE01A7
:104B4000ED5BFF4F80E090E0AAE7B4E480839183BF
:104B5000A283B3838E01015C1F4FFE01ED5BFF4F0B
:104B6000608171818281938120E030E04AEF54E4DA
:104B70000E941F02DC01CB01F80180839183A28394
:104B8000B383FE01FF96608171818281938120E071
:104B900030E040E85FE30E94790388232CF481E051
:104BA00090E09EAF8DAF46C0FE01FF96608171819F
:104BB0008281938120E03FEF4FE757E40E94190381
:104BC000181664F5FE01ED5BFF4F608171818281F3
:104BD000938120E030E040E251E40E941F02DC01BA
:104BE000CB01BC01CD010E944900DC01CB019EAF8D
:104BF0008DAF0FC088EC90E09CAF8BAF8BAD9CADC0
:104C00000197F1F79CAF8BAF8DAD9EAD01979EAF35
:104C10008DAF8DAD9EAD009769F71FC1FE01FF9668
:104C200060817181828193810E944900DC01CB0106
:104C30009EAF8DAF8DAD9EAD9AAF89AF89AD9AAD68
:104C40000197F1F79AAF89AF08C181E00E94E607AA
:104C50008FE391E00E94B00980E090E0AAE7B4E41D
:104C60008DAB9EABAFABB8AF6DA97EA98FA998AD48
:104C700020E030E04AEF54E40E941F02DC01CB0147
:104C800089AB9AABABABBCAB69A97AA98BA99CA940
:104C900020E030E040E85FE30E94790388232CF4B1
:104CA00081E090E098AB8FA73FC069A97AA98BA952
:104CB0009CA920E03FEF4FE757E40E941903181624
:104CC0004CF56DA97EA98FA998AD20E030E040E2B7
:104CD00051E40E941F02DC01CB01BC01CD010E9406
:104CE0004900DC01CB0198AB8FA70FC088EC90E0A6
:104CF0009EA78DA78DA59EA50197F1F79EA78DA7CD
:104D00008FA598A9019798AB8FA78FA598A9009711
:104D100069F714C069A97AA98BA99CA90E944900C6
:104D2000DC01CB0198AB8FA78FA598A99CA78BA777
:104D30008BA59CA50197F1F79CA78BA7FE01EF58C7
:104D4000FF4F93E08081292F281BCE0183589F4F6E
:104D5000622F0E941B0E80E090E0A0E2B1E48FA3DE
:104D600098A7A9A7BAA76FA178A589A59AA520E0B9
:104D700030E04AEF54E40E941F02DC01CB018BA318
:104D80009CA3ADA3BEA36BA17CA18DA19EA120E09D
:104D900030E040E85FE30E94790388232CF481E04F
:104DA00090E09AA389A33FC06BA17CA18DA19EA195
:104DB00020E03FEF4FE757E40E94190318164CF527
:104DC0006FA178A589A59AA520E030E040E251E4E2
:104DD0000E941F02DC01CB01BC01CD010E944900F1
:104DE000DC01CB019AA389A30FC088EC90E098A3C3
:104DF0008F8F8F8D98A10197F1F798A38F8F89A13D
:104E00009AA101979AA389A389A19AA1009769F70A
:104E100014C06BA17CA18DA19EA10E944900DC0160
:104E2000CB019AA389A389A19AA19E8F8D8F8D8D85
:104E30009E8D0197F1F79E8F8D8FDE01AF58BF4F8A
:104E4000FE01EF58FF4F80818F5F8C93FE01EF587A
:104E5000FF4F8081833008F4C6CCFE01EF58FF4F2E
:104E60008081833009F0FAC081E00E94E6078BE47C
:104E700091E00E94B00981E060E00E94D9098AE5D2
:104E800091E00E94B00980E090E0AAE7B4E4898F45
:104E90009A8FAB8FBC8F698D7A8D8B8D9C8D20E026
:104EA00030E04AEF54E40E941F02DC01CB018D8BFD
:104EB0009E8BAF8BB88F6D897E898F89988D20E00E
:104EC00030E040E85FE30E94790388232CF481E01E
:104ED00090E09C8B8B8B3FC06D897E898F89988DEC
:104EE00020E03FEF4FE757E40E94190318164CF5F6
:104EF000698D7A8D8B8D9C8D20E030E040E251E40D
:104F00000E941F02DC01CB01BC01CD010E944900BF
:104F1000DC01CB019C8B8B8B0FC088EC90E09A8BD3
:104F2000898B89899A890197F1F79A8B898B8B896B
:104F30009C8901979C8B8B8B8B899C89009769F747
:104F400014C06D897E898F89988D0E944900DC018B
:104F5000CB019C8B8B8B8B899C89988B8F878F85C2
:104F600098890197F1F7988B8F8781E00E94E60777
:104F700081E691E00E94B00980E090E0AAE7B4E405
:104F80008B879C87AD87BE876B857C858D859E854D
:104F900020E030E04AEF54E40E941F02DC01CB0124
:104FA0008F839887A987BA876F81788589859A8545
:104FB00020E030E040E85FE30E94790388232CF48E
:104FC00081E090E09E838D833FC06F8178858985E5
:104FD0009A8520E03FEF4FE757E40E941903181627
:104FE0004CF56B857C858D859E8520E030E040E228
:104FF00051E40E941F02DC01CB01BC01CD010E94E3
:105000004900DC01CB019E838D830FC088EC90E0CA
:105010009C838B838B819C810197F1F79C838B838D
:105020008D819E8101979E838D838D819E810097C6
:1050300069F714C06F81788589859A850E94490037
:10504000DC01CB019E838D838D819E819A83898330
:1050500089819A810197F1F79A838983C657DF4F37
:105060000FB6F894DEBF0FBECDBFCF91DF911F9179
:105070000F910895DF93CF93CDB7DEB7AC970FB6FE
:10508000F894DEBF0FBECDBF81E00E94E60789E63F
:1050900091E00E94B00981E060E00E94D90987E7B1
:1050A00091E00E94B0090E94FA0C8BA78BA58F3F5C
:1050B000D1F380E090E0AAE7B4E48FA398A7A9A772
:1050C000BAA76FA178A589A59AA520E030E04AEF9C
:1050D00054E40E941F02DC01CB018BA39CA3ADA36F
:1050E000BEA36BA17CA18DA19EA120E030E040E891
:1050F0005FE30E94790388232CF481E090E09AA377
:1051000089A33FC06BA17CA18DA19EA120E03FEFB0
:105110004FE757E40E94190318164CF56FA178A5C4
:1051200089A59AA520E030E040E251E40E941F02E8
:10513000DC01CB01BC01CD010E944900DC01CB01A7
:105140009AA389A30FC088EC90E098A38F8F8F8DCE
:1051500098A10197F1F798A38F8F89A19AA1019740
:105160009AA389A389A19AA1009769F714C06BA19A
:105170007CA18DA19EA10E944900DC01CB019AA3D4
:1051800089A389A19AA19E8F8D8F8D8D9E8D019768
:10519000F1F79E8F8D8F8BA5813009F0F4C0CE0181
:1051A0008C9665E00E941B0E80E090E0A0E2B1E4E6
:1051B000898F9A8FAB8FBC8F698D7A8D8B8D9C8DEB
:1051C00020E030E04AEF54E40E941F02DC01CB01F2
:1051D0008D8B9E8BAF8BB88F6D897E898F89988DD3
:1051E00020E030E040E85FE30E94790388232CF45C
:1051F00081E090E09C8B8B8B3FC06D897E898F898D
:10520000988D20E03FEF4FE757E40E9419031816EE
:105210004CF5698D7A8D8B8D9C8D20E030E040E2DD
:1052200051E40E941F02DC01CB01BC01CD010E94B0
:105230004900DC01CB019C8B8B8B0FC088EC90E08C
:105240009A8B898B89899A890197F1F79A8B898B37
:105250008B899C8901979C8B8B8B8B899C89009770
:1052600069F714C06D897E898F89988D0E944900E5
:10527000DC01CB019C8B8B8B8B899C89988B8F87D6
:105280008F8598890197F1F7988B8F878CA585304A
:1052900009F079C081E00E94E6078FE791E00E9463
:1052A000B00980E090E0AAE7B4E48B879C87AD87E3
:1052B000BE876B857C858D859E8520E030E04AEF3A
:1052C00054E40E941F02DC01CB018F839887A987D9
:1052D000BA876F81788589859A8520E030E040E83B
:1052E0005FE30E94790388232CF481E090E09E83A1
:1052F0008D833FC06F81788589859A8520E03FEF57
:105300004FE757E40E94190318164CF56B857C850E
:105310008D859E8520E030E040E251E40E941F022E
:10532000DC01CB01BC01CD010E944900DC01CB01B5
:105330009E838D830FC088EC90E09C838B838B8150
:105340009C810197F1F79C838B838D819E810197CE
:105350009E838D838D819E81009769F714C06F8134
:10536000788589859A850E944900DC01CB019E835E
:105370008D838D819E819A83898389819A8101970A
:10538000F1F79A838983AC960FB6F894DEBF0FBE0F
:10539000CDBFCF91DF910895AF92BF92CF92DF92B0
:1053A000EF92FF920F931F93DF93CF93CDB7DEB7AA
:1053B000A4970FB6F894DEBF0FBECDBF6D8B7E8B6A
:1053C0008F8B988F298F3A8F4B8F5C8FED8EFE8E4F
:1053D0000F8F18A3A9A2BAA2CBA2DCA2298D3A8D65
:1053E0004B8D5C8D8D899E89AF89B88D79018A013D
:1053F000E81AF90A0A0B1B0BD801C701898B9A8B93
:10540000AB8BBC8B29A13AA14BA15CA18D8D9E8D4C
:10541000AF8DB8A179018A01E81AF90A0A0B1B0BB2
:10542000D801C7018D879E87AF87B88B89899A89F4
:10543000AB89BC892D853E854F855889BC01CD013E
:105440000E94C22ADA01C90189879A87AB87BC8783
:1054500029A93AA94BA95CA98D8D9E8DAF8DB8A1C4
:1054600079018A01E81AF90A0A0B1B0BD801C70156
:1054700029853A854B855C85BC01CD010E946D2A4A
:10548000DC01CB018D839E83AF83B8872D813E8164
:105490004F8158858D899E89AF89B88D820F931F62
:1054A000A41FB51F89839A83AB83BC8389819A81AA
:1054B000AB81BC81BC01CD01A4960FB6F894DEBFD0
:1054C0000FBECDBFCF91DF911F910F91FF90EF9055
:1054D000DF90CF90BF90AF900895629FD001739FEF
:1054E000F001829FE00DF11D649FE00DF11D929F80
:1054F000F00D839FF00D749FF00D659FF00D9927BF
:10550000729FB00DE11DF91F639FB00DE11DF91FE2
:10551000BD01CF0111240895AA1BBB1B51E107C097
:10552000AA1FBB1FA617B70710F0A61BB70B881F33
:10553000991F5A95A9F780959095BC01CD010895C2
:10554000A1E21A2EAA1BBB1BFD010DC0AA1FBB1F87
:10555000EE1FFF1FA217B307E407F50720F0A21BF9
:10556000B30BE40BF50B661F771F881F991F1A9466
:1055700069F760957095809590959B01AC01BD0190
:10558000CF01089597FB092E05260ED057FD04D0B4
:10559000D7DF0AD0001C38F45095409530952195FE
:1055A0003F4F4F4F5F4F0895F6F790958095709558
:1055B00061957F4F8F4F9F4F08952F923F924F924B
:1055C0005F926F927F928F929F92AF92BF92CF9293
:1055D000DF92EF92FF920F931F93CF93DF93CDB79C
:1055E000DEB7CA1BDB0B0FB6F894DEBF0FBECDBF14
:1055F00009942A88398848885F846E847D848C84E5
:105600009B84AA84B984C884DF80EE80FD800C81ED
:105610001B81AA81B981CE0FD11D0FB6F894DEBFD0
:0C5620000FBECDBFED010895F894FFCF40
:10562C0043686F6F7365204F7074696F6E00312D16
:10563C00526F6F6D3100322D526F6F6D3200332D02
:10564C00526F6F6D3300342D4D6F7265004C4544B5
:10565C00313A00312D4F4E00322D4F464600302D41
:10566C00726574004C4544323A004C4544333A0060
:10567C0054656D703D200056616C75653D00312D93
:10568C004D6F726500312D46616E204F4E00322DEC
:10569C0046616E204F464600332D4D6F72650031CA
:1056AC002D4D75736963204F4E00322D4D75736906
:1056BC0063204F46460057726F6E672043686F69D0
:1056CC0063650057656C636F6D6520546F20536D77
:1056DC0061727400486F6D652053797374656D0049
:1056EC00456E746572204944203A00456E746572AB
:1056FC0020506173733A0057656C636F6D6500548D
:10570C00727920416761696E212100457863656576
:10571C0064656420746865203300547261696C732D
:10572C000042796520427965004F70656E2074687F
:10573C006520446F6F720050726573732031004F97
:10574C0070656E6E696E670000000000000000005E
:10575C0004050607000102030708092F0405062AA1
:10576C000102032D41003D2B3F065B4F666D7D070B
:0A577C007F6F0E0A0E040E150E11C9
:00000001FF
